:020000040000FA
:10000000A0020010690100007101000073010000EE
:100010007501000077010000790100000000000078
:100020000000000000000000000000007B01000054
:100030007D010000000000007F0100008101000040
:1000400083010000830100008301000083010000A0
:100050008301000083010000830100008301000090
:100060008301000083010000830100008301000080
:100070008301000083010000830100008301000070
:100080008301000083010000830100008301000060
:100090008301000083010000830100008301000050
:1000A0008301000083010000830100008301000040
:1000B0008301000083010000830100008301000030
:1000C00083010000830100008301000000F002F8BA
:1000D00000F03AF80AA090E8000C82448344AAF1A8
:1000E0000107DA4501D100F02FF8AFF2090EBAE8A6
:1000F0000F0013F0010F18BFFB1A43F0010318475C
:10010000BC060000DC060000103A24BF78C878C1A5
:10011000FAD8520724BF30C830C144BF04680C600D
:10012000704700000023002400250026103A28BF55
:1001300078C1FBD8520728BF30C148BF0B60704759
:100140001FB51FBD10B510BD00F0A6F81146FFF792
:10015000F7FF00F065FA00F0C4F803B4FFF7F2FF10
:1001600003BC00F025FB0000094880470948004710
:10017000FEE7FEE7FEE7FEE7FEE7FEE7FEE7FEE757
:10018000FEE7FEE704480549034A054B70470000B7
:10019000A9040000CD000000A0000010A002001083
:1001A000A000001053EA020C00F069802DE9F04B2A
:1001B0004FF00006002B1FBFB3FA83F503FA05F4D6
:1001C00024FA05F65E4012BF1643B2FA82F502FA2F
:1001D00005F4C5F120051EBF22FA05FC44EA0C0413
:1001E000203556EA044C4FEA144418BF641C4FF003
:1001F00000084FF00009904271EB030C39D300293D
:1002000019BFB1FA81F701FA07F6B0FA80F700FAE0
:1002100007F6C7F120071EBF20FA07FC46EA0C06C6
:100220002037B6FBF4FCA7EB0507103F07F01F0BC8
:10023000CBF120060CFA0BFB2CFA06F644BFB346B2
:100240000026202FA4BF5E464FF0000B5BEA060C91
:1002500008BF4FF0010B19EB0B09ABFB027C48EB1D
:100260000608C01B06FB02CC0BFB03CC71EB0C0198
:10027000C1E70B46024641464846BDE8F08B13B540
:100280004FF000004FF00001AFF30080BDE81C40CC
:100290007047704770477047754600F029F8AE46C2
:1002A00005006946534620F00700854618B020B582
:1002B000FFF768FFBDE820404FF000064FF0000751
:1002C0004FF000084FF0000B21F00701AC46ACE8FE
:1002D000C009ACE8C009ACE8C009ACE8C0098D466B
:1002E00070470446AFF300802046FFF736FF00005A
:1002F000004870473C00001070470000FFFFFFFF00
:100300002DE9F04781480068C0F3016003287CD1E3
:100310007F48006810F0030006D0012833D002287F
:100320005FD003282ED100E000BF78480068C0F3FA
:10033000074000F101044FF002017648D0F8880030
:10034000C0F30E0000F10100A1FB0001724B4FF061
:10035000000CA0FB037901FB039100FB0C1122466A
:1003600063463846FFF71EFF05466C480068C0B27A
:1003700000F1010422464FF000032846FFF712FF68
:10038000674908605DE061480068C0F3074000F11C
:1003900001044FF002015F48D0F88800C0F30E005E
:1003A00000F10100A1FB00105E4A4FF0000CA1FB20
:1003B000027900FB029001FB0C012246634638469D
:1003C000FFF7F0FE054655480068C0B200F1010491
:1003D00022464FF000032846FFF7E4FE504908602C
:1003E0002FE04A480068C0F3074000F101044FF0D5
:1003F00002014848D0F88800C0F30E0000F1010067
:10040000A1FB00124FF4004000E01BE04FF000039E
:10041000A1FB007902FB009001FB03012246384654
:10042000FFF7C0FE05463D480068C0B200F1010478
:1004300022464FF000032846FFF7B4FE3849086013
:1004400000BF2FE03248006810F0030006D00128FA
:1004500010D0022819D0032823D100E000BF2F4874
:100460000068C0B200F101002B49B1FBF0F02C494B
:10047000086016E029480068C0B200F1010029496F
:10048000B1FBF0F0264908600BE024480068C0B2D8
:1004900000F101004FF40041B1FBF0F02049086089
:1004A00000BF00BFBDE8F08720201F490860194841
:1004B000D0F8A00110F0200F05D000BF1A48006846
:1004C00010F0400FFAD00320144908601748114972
:1004D000C1F8A8011648174908604FF001000C49FF
:1004E00008604FF00400A1F10401086012481349AC
:1004F000086040F201100749C1F8C80108460068C9
:1005000020F4704040F480400860704788C00F407D
:100510000CC10F4000C00F4000093D0004C10F4056
:1005200000000010001BB700A0C10F4055515155ED
:1005300055545554ACC10F40DEF7EFEFC4C00F4027
:100540008D480068012808D18C4800688C490860F3
:100550006FF0F0608B49486325E087480068022807
:1005600008D189480068864908606FF0E0608549D5
:10057000486318E080480068032808D18348006871
:100580007F4908606FF0D0607E4948630BE07A488D
:100590000068042807D17E480068794908606FF038
:1005A000C060784948637648007800F00F007449CD
:1005B000086078480968405C774908600846006828
:1005C00000010860084600686E49486100207349D0
:1005D000086004E071480068401C704908606F487A
:1005E0000068B0F5FA7FF5D34FF47F606549C861C4
:1005F0007047002000E0401CB0F57A7FFBD36849CB
:100600000968642906D1FF21664A11700021644AF5
:10061000116004E062490968491C614A1160704731
:10062000FFF742FFFFF76CFE5F4800685F49084034
:100630005D4908600846C06820F47F10C8605148D2
:10064000006840F47F604F4908600846006A40F047
:10065000F06008628EE04B48406910F4001F42D001
:10066000FFF7C7FF44480068401C4349086008463C
:100670000068052801D1002008604A480078FF285A
:100680002ED10020474908703C480068401C3B4977
:10069000086008460068022822D1002008603A4815
:1006A0000068401C3849086008460068022817D1D5
:1006B0000020086035480068401C3449086008463E
:1006C000006802280CD10020086031480068401CF6
:1006D0002F49086008460068022801D10020086000
:1006E000FFF72EFF46E02748406910F4001F41D174
:1006F000FFF77FFF20480068401C1F49086008463C
:100700000068052801D10020086026480078FF28ED
:100710002ED100202349087018480068401E174950
:10072000086008460068401C22D101200860164875
:100730000068401E1449086008460068401C17D134
:100740000120086011480068401E104908600846F2
:100750000068401C0CD1012008600D480068401E54
:100760000B49086008460068401C01D10120086060
:10077000FFF7E6FE6FE7000018000010040000100D
:100780001C00001000C00920080000100C00001020
:1007900010000010200000102C000010300000108D
:1007A000140000102B00001000C00240FF0000FFEA
:1007B00001491820ABBEFEE726000200DC0700005E
:1007C000000000103C0000000801000018080000B4
:1007D0003C0000106402000024010000C0C62D008F
:1007E0000000000000000000000000000000000009
:1007F0000000000000000000000000003F065B4F0A
:10080000666D7D077F6F00000000000000000000A3
:080810000000000000000000E0
:04000005000000CD2A
:00000001FF
