:020000040000FA
:10000000A8020010690100007101000073010000E6
:100010007501000077010000790100000000000078
:100020000000000000000000000000007B01000054
:100030007D010000000000007F0100008101000040
:1000400083010000830100008301000083010000A0
:100050008301000083010000830100008301000090
:100060008301000083010000830100008301000080
:100070008301000083010000830100008301000070
:100080008301000083010000830100008301000060
:100090008301000083010000830100008301000050
:1000A0008301000083010000830100008301000040
:1000B0008301000083010000830100008301000030
:1000C00083010000830100008301000000F002F8BA
:1000D00000F03AF80AA090E8000C82448344AAF1A8
:1000E0000107DA4501D100F02FF8AFF2090EBAE8A6
:1000F0000F0013F0010F18BFFB1A43F0010318475C
:10010000CC060000EC060000103A24BF78C878C185
:10011000FAD8520724BF30C830C144BF04680C600D
:10012000704700000023002400250026103A28BF55
:1001300078C1FBD8520728BF30C148BF0B60704759
:100140001FB51FBD10B510BD00F0A6F81146FFF792
:10015000F7FF00F046F900F0C4F803B4FFF7F2FF30
:1001600003BC00F02DFB0000094880470948004708
:10017000FEE7FEE7FEE7FEE7FEE7FEE7FEE7FEE757
:10018000FEE7FEE704480549034A054B70470000B7
:1001900029070000CD000000A8000010A8020010F0
:1001A000A800001053EA020C00F069802DE9F04B22
:1001B0004FF00006002B1FBFB3FA83F503FA05F4D6
:1001C00024FA05F65E4012BF1643B2FA82F502FA2F
:1001D00005F4C5F120051EBF22FA05FC44EA0C0413
:1001E000203556EA044C4FEA144418BF641C4FF003
:1001F00000084FF00009904271EB030C39D300293D
:1002000019BFB1FA81F701FA07F6B0FA80F700FAE0
:1002100007F6C7F120071EBF20FA07FC46EA0C06C6
:100220002037B6FBF4FCA7EB0507103F07F01F0BC8
:10023000CBF120060CFA0BFB2CFA06F644BFB346B2
:100240000026202FA4BF5E464FF0000B5BEA060C91
:1002500008BF4FF0010B19EB0B09ABFB027C48EB1D
:100260000608C01B06FB02CC0BFB03CC71EB0C0198
:10027000C1E70B46024641464846BDE8F08B13B540
:100280004FF000004FF00001AFF30080BDE81C40CC
:100290007047704770477047754600F029F8AE46C2
:1002A00005006946534620F00700854618B020B582
:1002B000FFF768FFBDE820404FF000064FF0000751
:1002C0004FF000084FF0000B21F00701AC46ACE8FE
:1002D000C009ACE8C009ACE8C009ACE8C0098D466B
:1002E00070470446AFF300802046FFF736FF00005A
:1002F000004870474800001070470000FFFFFFFFF4
:1003000090480068012808D18F4800688F4908602C
:100310006FF0F0608E49486325E08A480068022843
:1003200008D18C480068894908606FF0E06088490E
:10033000486318E083480068032808D186480068AD
:10034000824908606FF0D060814948630BE07D48C6
:100350000068042807D1814800687C4908606FF074
:10036000C0607B4948637948007800F00F00774906
:1003700008607B480968405C7A4908600846006864
:10038000000108600846006871494861002076490C
:10039000086004E074480068401C734908607248B3
:1003A0000068B0F5FA7FF5D34FF47F606849C86103
:1003B0007047002000E0401CB0F57A7FFBD36B490A
:1003C0000968B1F57A7F06D1FF21694A11700021D1
:1003D000664A116004E065490968491C634A116076
:1003E000704700F0A1F900F0CBF86248006862495C
:1003F0000840604908600846406820F44060486052
:100400000846C06820F47F10C8605148006840F476
:100410007F604F4908600846006A40F0F06008625B
:100420008EE04B48406900F40010544908600846CB
:100430000068002842D0FFF7BCFF42480068401C1B
:100440004049086008460068052801D1002008607E
:1004500047480078FF282ED10020454908703A48C7
:100460000068401C3849086008460068102822D1FE
:100470000020086037480068401C3649086008467C
:100480000068102817D10020086033480068401C1D
:10049000314908600846006810280CD10020086027
:1004A0002E480068401C2D49086008460068102846
:1004B00001D100200860FFF723FF41E0FFF779FF3B
:1004C00020480068401C1F4908600846006805284D
:1004D00001D10020086026480078FF282ED1002096
:1004E0002349087018480068401E174908600846EC
:1004F0000068401C22D10F20086016480068401E8A
:100500001449086008460068401C17D10F20086095
:1005100011480068401E1049086008460068401CE9
:100520000CD10F2008600D480068401E0B49086080
:1005300008460068401C01D10F200860FFF7E0FE6C
:100540006FE70000140000100000001018000010F9
:1005500000C0092004000010080000100C0000106A
:1005600020000010340000103800001010000010AF
:100570003100001000C00240FF0000FF40000010EA
:100580002DE9F04781480068C0F3016003287CD161
:100590007F48006810F0030006D0012833D00228FD
:1005A0005FD003282ED100E000BF78480068C0F378
:1005B000074000F101044FF002017648D0F88800AE
:1005C000C0F30E0000F10100A1FB0001724B4FF0DF
:1005D000000CA0FB037901FB039100FB0C112246E8
:1005E00063463846FFF7DEFD05466C480068C0B23A
:1005F00000F1010422464FF000032846FFF7D2FD28
:10060000674908605DE061480068C0F3074000F199
:1006100001044FF002015F48D0F88800C0F30E00DB
:1006200000F10100A1FB00105E4A4FF0000CA1FB9D
:10063000027900FB029001FB0C012246634638461A
:10064000FFF7B0FD054655480068C0B200F101044F
:1006500022464FF000032846FFF7A4FD50490860EA
:100660002FE04A480068C0F3074000F101044FF052
:1006700002014848D0F88800C0F30E0000F10100E4
:10068000A1FB00124FF4004000E01BE04FF000031C
:10069000A1FB007902FB009001FB030122463846D2
:1006A000FFF780FD05463D480068C0B200F1010437
:1006B00022464FF000032846FFF774FD38490860D2
:1006C00000BF2FE03248006810F0030006D0012878
:1006D00010D0022819D0032823D100E000BF2F48F2
:1006E0000068C0B200F101002B49B1FBF0F02C49C9
:1006F000086016E029480068C0B200F101002949ED
:10070000B1FBF0F0264908600BE024480068C0B255
:1007100000F101004FF40041B1FBF0F02049086006
:1007200000BF00BFBDE8F08720201F4908601948BE
:10073000D0F8A00110F0200F05D000BF1A480068C3
:1007400010F0400FFAD003201449086017481149EF
:10075000C1F8A8011648174908604FF001000C497C
:1007600008604FF00400A1F1040108601248134929
:10077000086040F201100749C1F8C8010846006846
:1007800020F4704040F480400860704788C00F40FB
:100790000CC10F4000C00F4000093D0004C10F40D4
:1007A00044000010001BB700A0C10F405551515527
:1007B00055545554ACC10F40DEF7EFEFC4C00F40A5
:1007C00001491820ABBEFEE726000200EC0700003E
:1007D000000000104800000008010000340800007C
:1007E000480000106002000024010000000000002A
:1007F00000000000000000000000000000000000F9
:100800000000000000000000000000003F065B4FF9
:10081000666D7D077F6F777C395E7971000000001F
:1008200000000000000000000000000000000000C8
:04083000C0C62D0011
:04000005000000CD2A
:00000001FF
